:1000000040100020E10B0000E9450000B50B0000A6
:10001000B50B0000B50B0000B50B000000000000A0
:10002000000000000000000000000000C107000008
:10003000B50B0000000000005D070000B50B0000DC
:100040007D0800007D0800007D0800007D0800009C
:100050007D0800007D0800007D0800007D0800008C
:100060007D0800007D0800007D0800007D0800007C
:100070007D0800007D0800007D0800007D0800006C
:100080007D0800007D0800007D0800007D0800005C
:100090007D0800007D0800007D0800007D0800004C
:1000A0007D0800007D0800007D0800007D0800003C
:1000B0007D0800007D0800007D0800007D0800002C
:1000C0007D0800007D0800007D0800007D0800001C
:0C00D0007D0800007D0800007D08000095
:1000DC0053B94AB9002908BF00281CBF4FF0FF31A3
:1000EC004FF0FF3000F00CB8ADF1080C6DE904CE08
:1000FC0000F008F8DDF804E0DDE9022304B07047F5
:10010C00704700BF2DE9F04786468C460846089E8E
:10011C00154674461946002B40F0C2808542B2FA4F
:10012C0082F245D94AB1C2F1200300FA02FC2EFA40
:10013C0003F3954043EA0C0C94404FEA154EA8B2D9
:10014C00BCFBFEF8230C0EFB18CC08FB00F943EAB1
:10015C000C43994528D9EB1808F1FF3704D299457F
:10016C0002D9A8F102072B44A3EB0903A4B2B3FBF9
:10017C00FEFC0EFB1C330CFB00F044EA0344A042D3
:10018C0014D92C190CF1FF3304D2A04202D9ACF1D2
:10019C0002032C44241A43EA07401EB1D440002326
:1001AC0034607360BDE8F0874746DDE76346F1E7EE
:1001BC0092BB431B01214FEA154EAFB2B3FBFEFCC1
:1001CC00200C0EFB1C330CFB07F840EA034398454C
:1001DC0062D9EB180CF1FF3004D2984502D9ACF17E
:1001EC0002002B44A3EB0803A4B2B3FBFEFC0EFBF2
:1001FC001C330CFB07F744EA0344A7424ED92C19D5
:10020C000CF1FF3304D2A74202D9ACF102032C4407
:10021C00E41B43EA0040C0E7C2F1200320FA03F1DB
:10022C00954090402EFA03F303434FEA154EAFB2BC
:10023C00B1FBFEFC0EFB1C10190C0CFB07F841EA81
:10024C000041884504FA02F422D969180CF1FF30F8
:10025C0004D2884502D9ACF102002944A1EB080173
:10026C009BB2B1FBFEFC0EFB1C110CFB07F743EA27
:10027C0001439F420ED9EB180CF1FF3104D29F427F
:10028C0002D9ACF102012B44DB1B41EA004192E79D
:10029C006046E3E76146F7E76046A3E76346B7E7E6
:1002AC00834206D916B9002108467BE7C6E900E06F
:1002BC00F9E7B3FA83F78FB9834201D3724508D8B3
:1002CC00BEEB020460EB030301209C461EB9002127
:1002DC0068E73846FAE7C6E9004CF8E7C7F1200CA6
:1002EC00BB4022FA0CF41C432EFA0CF120FA0CF34E
:1002FC00B84001434FEA14490EFA07F5B3FBF9F87D
:10030C001FFA84FE09FB18300B0C08FB0EFA43EAAB
:10031C0000439A4502FA07F240D9E31808F1FF307E
:10032C0004D29A4502D9A8F102002344A3EB0A0394
:10033C0089B2B3FBF9F809FB183308FB0EFE41EA4E
:10034C0003418E452CD9611808F1FF3304D28E4538
:10035C0002D9A8F10203214443EA0040A0FB029811
:10036C00A1EB0E014145CE46434602D306D14D4585
:10037C0004D2B9EB020E68EB04030138002EA6D0B0
:10038C00B5EB0E0261EB030101FA0CFC22FA07F348
:10039C004CEA0303F940C6E9003198E74046C5E74B
:1003AC004346D9E7014B1B68184700BF00000020EB
:1003BC0030B585B004460D4610220021684604F085
:1003CC00C0FC02238DF802302A46044B01932146CF
:1003DC00684602F04DFE05B030BD00BFB103000011
:1003EC0080B505460E461746984602F0DFFB0346DD
:1003FC0004F0B0FCDFF81890044649F8003042468F
:10040C0030463946A84754F8090000F063FC00BF99
:10041C00080000002DE9F047058B0446280790469C
:10042C0011D4022905F0070540F0CD80204603F0D9
:10043C00F1FF78B10138218B042811D8DFE800F0E6
:10044C00C3106D85950001290CBF45F0100545F0D2
:10045C002005258388F31188BFF36F8FBDE8F087E3
:10046C0001F0070AAA4500F0A6800027B9463E46CF
:10047C00A368002B00F0BD8041F00801218388F3B4
:10048C001188BFF36F8FA168002900F0BB800D6845
:10049C00002900F0B780D1F804803346524620463C
:1004AC00C047002D76D02B6829461D46F0E701F099
:1004BC0007035A1F012A1BD8002221F00701062B23
:1004CC00276889B2C4E9002209D13B4603E0628B5C
:1004DC00013262831B68002BF9D141F002012183A8
:1004EC00204603F097FF00287BD041F0200177E0F5
:1004FC00042B0AD121F0070189B22183204603F095
:10050C0089FF10B141F020012183218B01F0070AF2
:10051C00AA4550D00027B946AAE7236921F0070164
:10052C0041F00601062DD3F8009021832DD1B9F1AD
:10053C00000F40D041F00801218388F31188BFF3EC
:10054C006F8F3A492046C84729E021F007012369FB
:10055C0041F0040189B2042DD3F804902183E6D034
:10056C0000273E464FF0040A82E721F00701236979
:10057C0041F0050189B2052DD3F808902183D6D01E
:10058C0000273E464FF0050A72E700273E464FF023
:10059C00060A6DE72B4687E7B9F1000FD1D14FF072
:1005AC002003EFF3118883F31288BFF36F8F238B33
:1005BC0023F008032383258BEA062ED525F01003A0
:1005CC00238305F007056669218B002EBFF66FAFFC
:1005DC0000232768C4E9003321F0070141F0010131
:1005EC002183218B01F0070AAA454FF000097FF403
:1005FC003FAF002F9BD041F00801218388F3118875
:10060C00BFF36F8F002FC7D03D6839463346524633
:10061C00204603F02BFF2F46F4E7AB067FF51AAF0D
:10062C0025F02003238305F00705FFE6A544000011
:10063C0001F034B9014910220A60704710ED00E056
:10064C0072B6404080F31188BFF36F8FBFF34F8FAA
:10065C0030BF62B6BFF36F8F704700BF72B64940B0
:10066C0081F31188BFF34F8F20BF80F3118862B6DE
:10067C00704700BF40B2002807DB044A4109012340
:10068C0000F01F00834042F82130704700E100E089
:10069C00054B420900F01F0053F82220012303FAF6
:1006AC0000F01040704700BF00E100E040B20028AD
:1006BC00A8BF00F1604001F10101B8BF064B4FEA41
:1006CC004111ACBF00F5614000F00F00C9B2B4BFDE
:1006DC00195480F80013704714ED00E030BFFFF799
:1006EC00FDBF00BF0B4A08B50B4B22F07F029A608E
:1006FC00BFF34F8FBFF36F8FD3F8882022F47002B3
:10070C00C3F8882001F014FE02F0B6FA00F056FA95
:10071C0001F060FE0000000000ED00E0094A0A490B
:10072C00936809689967094958674B6843F0805387
:10073C004B60002383F31188BFF36F8F9368986F1E
:10074C00704700BF440200209C52000000ED00E006
:10075C0015498A684FF030001044EFF3098C80E89B
:10076C00F01F202080F31288BFF36F8F0F4F4FF0D4
:10077C0000664A698A603E604FF070041419206864
:10078C000B4C2060506F0023536780F3118804B525
:10079C00104600F0C1FABDE8044002F1300090E8C8
:1007AC00F01F8CF3098870474402002004ED00E030
:1007BC00780100201EF0040F0CBFEFF30880EFF35C
:1007CC000980816911F8021C0229FFD001B503F0E0
:1007DC00FDFE01BD42F8203C009B42F81C3C0A493E
:1007EC00019B42F8183C029B42F8143C21F0010199
:1007FC004FF0807342F8043C42F8081C0023203A66
:10080C0002654367704700BFED030000094A0346C9
:10081C00906870B113F1160F006E05D0A0F1400274
:10082C009A4205D8834203D2814228BF00207047E8
:10083C00002070474402002008B514460A4A0B4BAE
:10084C009060026F1A600D4600F066FA204685F340
:10085C000988002163B681F31188BFF36F8F0022E2
:10086C000023FFF7BDFD00BF4402002078010020EB
:10087C0001B5EFF30580A0F110004FEAC000044968
:10088C00014409C99847BDE80140024908470000E6
:10089C00C44D000001090000114B124A2DE9F04132
:1008AC00D518DFF84480013DB5FBF3F55D430F4BE4
:1008BC0008EB0304013CB4FBF3F403FB04540E1BE0
:1008CC0007460B49304604F02EFA701942460021B7
:1008DC00083E04F036FA3E6704F10800BDE8F081EA
:1008EC0001000000000000000400000004000000F3
:1008FC004C4F0000044B99685869884203D0034957
:10090C004FF080520A6070474402002004ED00E072
:10091C0070B5264B15469A6A12F0100F9A6A14BFDE
:10092C001124102412F0080F9A6A18BF122492078F
:10093C0006460AD5586B9A6A140634D519B19A6AC8
:10094C0022F080029A62132401E06FF01500174B1D
:10095C009A6A12F0010F9A6A18BF142412F0200F31
:10096C009A6A18BF1524D20602D49B6A9B070AD533
:10097C000E4B5B68190506D53146FFF747FF10B1E2
:10098C0080F309880224094B9A6A920642BF5A6A7C
:10099C0022F400525A629A6A42F0FF029A620023D1
:1009AC002B70204670BD6FF01500CCE700ED00E019
:1009BC00134B9A6A12F0007F9A6A14BF1E201D20F6
:1009CC0012F0807F9A6A18BF1F2012F4002F9A6AC7
:1009DC0018BF212012F4802F9A6A18BF222012F41B
:1009EC00003F9A6A18BF232012F4803F9A6A6FEA7C
:1009FC0002426FEA12429A6218BF2420704700BF6D
:100A0C0000ED00E010B5194B0246986A9C6A10F490
:100A1C00805F14BF1720162014F4006F9C6A18BF57
:100A2C001820A40509D5986B986A000404D51AB14E
:100A3C009A6A22F400429A6219200C4B9A6A12F4B8
:100A4C00806F9A6A18BF1A20D2050CD49B6A13F4D3
:100A5C00005F18BF1C20054A936A43F47F439362DE
:100A6C0000230B7010BD1B20F5E700BF00ED00E06C
:100A7C00F0B5484B5B688BB00446C3F30803002504
:100A8C0085F31188BFF36F8F02F07F40B0F17F4F79
:100A9C0011D102F00C0008280DD010074CBF0C46E9
:100AAC0001250022033B8DF80720032B05D8DFE836
:100ABC0003F0246367602C46F3E700239DF80720BE
:100ACC00CAB902AE04F1200720686168324603C23D
:100ADC000834BC421646F7D1099A002D54D0C2F303
:100AEC00080121B96FEA52226FEA4222099202A947
:100AFC00184603F069FD0BB0F0BD264BDA6A91077E
:100B0C00DBD4DA6A002AD8DBDA6A5200D5D55A6906
:100B1C00A16942F480725A61BFF34F8FBFF36F8F9C
:100B2C005A6931F8021C22F480725A61BFF34F8F5C
:100B3C00BFF36F8F4DF6027291420AD09A6AD2B20D
:100B4C004AB10DF1070201212046FFF7E1FE0346F1
:100B5C00B4E72368B2E79A6A12F47F4F05D00DF11F
:100B6C0007010120FFF74EFFF1E79B6AB3F5803FC9
:100B7C00A3D3FFF71DFFEAE70DF107020021E3E71E
:100B8C000DF107010020EDE722F4FF7222F00102C3
:100B9C00ACE700BF00ED00E0024A536943F01003DC
:100BAC005361704700ED00E0EFF30880EFF309812B
:100BBC0001B57246FFF75CFF01BD00BF044800237E
:100BCC002021C2180133272B82F80013F9D170476A
:100BDC0000E100E0002080F31488BFF36F8FFFF773
:100BEC0027FD00200D490860BFF34F8F0C4880F3A0
:100BFC00088800F03DF8202080F3118809484FF454
:100C0C000461401880F30988EFF314800221084333
:100C1C0080F31488BFF36F8FFFF764FD94ED00E051
:100C2C004010002080020020BFF34F8F0549064B77
:100C3C00CA6802F4E0621343CB60BFF34F8F00BF6E
:100C4C00FDE700BF00ED00E00400FA050749D1F80C
:100C5C0090200023C2F307221846934200DB704712
:100C6C00C1F89830C1F8A0000133F6E700ED00E0C0
:100C7C0008B572B6002383F31388FFF7E7FF144B14
:100C8C004FF0FF32C3F88020C3F88420C3F88820CB
:100C9C00C3F88C20C3F89020C3F89420C3F8982094
:100CAC00C3F89C20C3F88021C3F88421C3F88821A1
:100CBC00C3F88C21C3F89021C3F89421C3F8982170
:100CCC00C3F89C2162B6BFF34F8FBFF36F8F08BD83
:100CDC0000E100E0084B9B6883420BD1EFF30583E6
:100CEC0043B1064B5A6842F080525A605A6A22F459
:100CFC0000425A6201F060BF4402002000ED00E0A7
:100D0C00024B034A0348012100F070B80000012097
:100D1C0000000020E8510000026E054B403A1A60BA
:100D2C00044A4021C3E901121846012100F068B8B9
:100D3C007C01002000000B15F0B5204E00258D42E3
:100D4C0039DA446874B353B104F1FF3C14EA0C0F64
:100D5C002FD11F2C2DD907681CEA070F29D1202C65
:100D6C000768D0F808C05FFA82FE1ED9B4F1004FB4
:100D7C001DD8013CB4FA84F4C4F11F046400BEF124
:100D8C00070F4CEA040C14D827F01F04144344F04A
:100D9C001004C6F89820C6F89C404CF00104C6F824
:100DAC00A040013201350C30C9E70824E7E73E24A6
:100DBC00E5E76FF015021046F0BD00BF00ED00E056
:100DCC00044B0522C3F89420BFF34F8FBFF36F8FF2
:100DDC00704700BF00ED00E0BFF35F8F024B0022B5
:100DEC00C3F89420704700BF00ED00E010B5034C31
:100DFC0001232278FFF7A0FF207010BD74020020A1
:100E0C0008B5094A00231278FFF796FF10F1160F68
:100E1C0002D0064A072800DD08BDC2F89800C2F8C7
:100E2C00A0300130F6E700BF7402002000ED00E0B6
:100E3C0014490868082810B521D8FFF7CDFF124CCB
:100E4C0049680022904201F10C0105D10F4B18703A
:100E5C00FFF7B6FF002010BDC4F8982051F80C3CE9
:100E6C0023F01F03134343F01003C4F89C3051F8D4
:100E7C00043C43F00103C4F8A0300132E2E74FF028
:100E8C00FF30E8E7F451000000ED00E074020020B0
:100E9C0008B50649064821F00701C1F1005202F5D8
:100EAC00803203F07AFA002008BD00BF93100020B6
:100EBC0080100020024B0122C3F84025002070470F
:100ECC0000E0014020B1034B800143F001031847BF
:100EDC00704700BF504F0000084B70B5C31A0D4649
:100EEC0007499B10044659430648402203F099FBDE
:100EFC002B4601462046BDE8704018479C01002057
:100F0C00B76DDBB69C4D000073B50C4C0C4A4023FE
:100F1C00041B00930D460B460A49A4106143064678
:100F2C00094803F0ABFB011E05DA30462B4602B034
:100F3C00BDE87040184702B070BD00BF9C01002096
:100F4C00F5460000B76DDBB69C4D000010B54FF0B8
:100F5C002003EFF3118483F31288BFF36F8F074ADA
:100F6C00136823F00201DB07116002D4012003F0A7
:100F7C0024FC84F31188BFF36F8F10BDEC010020AB
:100F8C00002270B5012104461046FFF78FFB0F4875
:100F9C0000F0F2FD0E4B984215D103F001FC2669CE
:100FAC000C49304603F086FA00280BDB012535642A
:100FBC002469084904F11C0003F07CFA002801DBC9
:100FCC00E564002070BD6FF00400FBE71910000011
:100FDC000000AD0B1452000070B501460C230948FB
:100FEC004B43C418D4E90E56403300221844A26374
:100FFC0003F004FB2DB132462B460348BDE870408C
:10100C00184770BD9C0100209C4D000010B10128B8
:10101C0004D07047034B1B6C5B0701D1FFF7DCBF9F
:10102C00704700BF9C01002008B54FF02003EFF380
:10103C00118183F31288BFF36F8F124A136843F048
:10104C0002001060DA0708D481F31188BFF36F8FA8
:10105C000120BDE8084000F09FBD4FF08043D3F85D
:10106C000C24D3F80C34DB07EED5074803F0C6FA92
:10107C0081F31188BFF36F8F0020BDE80840FFF7A4
:10108C00ABBF00BFEC010020DC0100201FB500222B
:10109C000123CDE90223094ACDF800D06B46CDF8E7
:1010AC0004D003F01AFB002805DB4FF48042002328
:1010BC00684601F0BDFA05B05DF804FB0D47000071
:1010CC0010B5074C23782BB94FF4A57003F026FC10
:1010DC0001232370BDE81040002000F05DBD00BF6F
:1010EC00750200202DE9F0413849BFF35B8F0746AC
:1010FC00012251E8003F41E800200028F9D1BFF35C
:10110C005B8F33B9324933484B60CB608A6003F054
:10111C00E4F97B1E012B2BD8012F07D14FF0804314
:10112C00D3F81C3403F00303012B21D003F0FFFB95
:10113C000546F8B9284B1B78E3B14FF080430222E7
:10114C00C3F808230646DFF894804FF08044D4F8A7
:10115C001824D4F81834D20316D503F00303012B4A
:10116C0001D0012F10D15DB386F31188BFF36F8FBF
:10117C00BDE8F0814FF02003EFF3118683F3128862
:10118C00BFF36F8F0125DEE7ADB13046FFF766FA8E
:10119C00D4F81835002BDAD1D4F80421002AD6D093
:1011AC00C4F80431D4F804310123C4F81835C8F854
:1011BC008031A360CBE70021212001F0DDFCE7E7C3
:1011CC004FF080430222C3F80423D1E7980100209A
:1011DC0088010020B80100207602002000E100E028
:1011EC0008B543681B68D3F80805D3F80C1500F054
:1011FC00D7FF034B984214BF6FF00F00002008BDBF
:10120C000000AD0B37B50446002201210320FFF787
:10121C004DFA63689D6901AA0021284603F08CFAF7
:10122C00002814DB019B2A681979186800F0B0F8C3
:10123C0000280CDB60682369064A00F1080100F005
:10124C0049FE054B984214BF6FF00F00002003B00D
:10125C0030BD00BF691200000000AD0B0378012BFC
:10126C0008D0022B08D04BB9054B0B6201F11000D2
:10127C0001F0BAB9034BF8E7034BF6E7034BF4E77D
:10128C000000AD0B0100AE0B0200AE0B0100AD0B6C
:10129C002DE9F04F8BB005460C46904601934768FC
:1012AC0006694FF0FF324FF0FF33304601F0C0F9C2
:1012BC0006F1100A00220023504601F0B9F9384615
:1012CC0000F068FEDFF8C0B04FF00009C14501D353
:1012DC0000242EE0237A039313F008014DD112223F
:1012EC000DF11600029103F02CFD039B606801992F
:1012FC00069003F0010220688DF8151013F0020F10
:10130C0002998DF8142008901DD108F1FF334B453C
:10131C0002D9237D5B0718D57ABB202205A9384654
:10132C0000F064FE584512D0184B984228D06FF04C
:10133C000404384600F03EFE304601F055F92046D4
:10134C000BB0BDE8F08F0A46E8E74022E6E74FF421
:10135C0080420023504601F06BF930B1384600F062
:10136C0029FE2846FFF73CFFE1E7336A5B4504F1B1
:10137C000C04DCD109F10109A8E76FF08504D8E76A
:10138C006FF00F04D5E700BF0000AD0B0B00AD0BE9
:10139C00F0B50025EBB2994201D80020F0BD50F811
:1013AC00254004F07F077F2F4FEA144323D00B2BEB
:1013BC00C4F343262ED1C2F80875002E08BF0626AA
:1013CC007F0950F8253004F01F042BD1A400C3F37F
:1013DC00403704F1A044C3F3C1139B00D4F800C7F9
:1013EC0043EA4703124F0CEA07073B4343EA062341
:1013FC00C4F8003705E00B2B05D14FF0FF33C2F8D2
:10140C0008350135C6E70C2B09D14FF0FF33C2F874
:10141C000C35F6E70C2B02D1C2F80C75CDE76FF04A
:10142C008500BBE704F5E074002353F82430FFDE9D
:10143C00F0F8FCFF70B5012383400E4ABFF35B8FBD
:10144C00DC4352E8001F01EA040542E80056002E76
:10145C00F7D1BFF35B8F4FF4803282400648C0F85F
:10146C000823BFF35F8FBFF36F8F0B4214BF0120B4
:10147C00002070BDF40100200010014070B40E4932
:10148C00D1E90034D01AC31844F1000422F07F468D
:10149C00C1E90034A6F50013B3F5400F09D2074B90
:1014AC001B681A0A1B069C19054B42F10005C3E97F
:1014BC00004570BC01F0B6BC48000020F8010020CB
:1014CC005000002011B3BFF35B8F0123104A8340FF
:1014DC0052E800CF4CEA030C42E800C10029F7D1D6
:1014EC00BFF35B8F0B4A4FF480338340C2F8043355
:1014FC00094BBFF35B8F1B68BFF35B8FC340DB07EC
:10150C0042BF064B4FF40032C3F80021704700BFB6
:10151C00F401002000100140F001002000E100E087
:10152C000D4B1868010A0006BFF35F8F0B4BD3F805
:10153C000435181841F10001B3F5801F0AD2084B8D
:10154C00D3E90023904271EB030303D210F18070B6
:10155C0041F10001704700BFF8010020001001406C
:10156C00500000202DE9F04F85B016461F469DF81F
:10157C0040A00446FFF75EFF0190FFF7D1FFB04299
:10158C0071EB070354D23E4B301A67EB01019842C2
:10159C0071F100014FD23B4B03EB0413D3E902234F
:1015AC009F4208BF96425ED037494FF4803804F111
:1015BC00500508FA04F8AD00C1F848832046ADB2D6
:1015CC0003F0CDF826F07F4B05F1804504F5A873A8
:1015DC0005F58835DC464FF003090293029A2CF08E
:1015EC007F4341F82230C1F84483D1F80435274AAF
:1015FC006FF00200C01A604420F07F40904232D954
:10160C00286868B1D1F804350393A3EB0B0020F0E4
:10161C007F40B0F5000F26D9204603F0A0F8039BBD
:10162C00BAF1000F07D109EB030C09F10109D5E759
:10163C00BAF1000F09D06FF0150520460199FFF79C
:10164C0041FF284605B0BDE8F08F0123104ABFF3D7
:10165C005B8FA34052E8000F184342E800010029B9
:10166C00F8D1BFF35B8F07490E98230101EB0412ED
:10167C00C8500F9B5360C2E902670025DDE700BF2D
:10168C00010080003800002000100140FDFF7F00A9
:10169C00F00100207FB51C4C1C4BC4F80833C4F877
:1016AC0048331B4B00254FF0FF304FF0FF31C4F88F
:1016BC000855C3E902014FF48033C4F80433154BC9
:1016CC0002264FF400320121C4F804631120C3F840
:1016DC0080212A46FEF7EAFF1120FEF7CBFF0E4AC7
:1016EC000123A360236013600C4B0D4A0093CDE9DA
:1016FC00015500232846FFF735FF3046FFF7F2FC73
:10170C00284604B070BD00BF0010014003000F005C
:10171C003800002000E100E0F401002089140000F2
:10172C00FFFF7F002DE9F7432F4CD4F804339907C2
:10173C000BD5D4F8043143B12C4A0023C4F804313E
:10174C00D4F80431136801331360D4F80433DA038A
:10175C002AD5BFF35B8F264B53E8002F22F00101F3
:10176C0043E800100028F7D1BFF35B8FD30702D4F6
:10177C00D4F84031C3B10025C4F84051D4F84031FD
:10178C00FFF7CEFE4FF02003EFF3118283F31288A4
:10179C00BFF36F8F174BD3E90267B042B94106D242
:1017AC0082F31188BFF36F8F03B0BDE8F0834FF065
:1017BC00FF384FF0FF39C3E90289D3E900101D60EF
:1017CC004FF48033C4F84833C4F84051D4F8403156
:1017DC0082F31188BFF36F8F0029E5D00090324659
:1017EC003B4628468847DFE700100140F8010020FF
:1017FC00F0010020380000201FB5431C23D0012825
:10180C0023DD134A134B9042D4BF04461C46FFF70A
:10181C0087FE114B0F49D3E90023801AB0F5000F56
:10182C0028BF002404448C4228BF0C46A2180B4944
:10183C0000914FF00000CDE9010043F10003FFF7E8
:10184C0091FE04B010BD034CE1E70124DFE700BFBB
:10185C00FEFF7F00FFFF7F0048000020891400007E
:10186C0008B5FFF75DFE024B1B68C01A08BD00BF30
:10187C00480000204FF0704393F8E02F062A09D15E
:10188C00D3F8E83FC3F30313033B042B02D8024AFB
:10189C00D05C704700207047DE53000008B502F0A2
:1018AC006EFF40B14FF08053784AD3F82433C3F322
:1018BC000423C2F84035FFF7DDFF10B1744B754AB5
:1018CC005A6702F05CFF48B14FF080534FF08042F2
:1018DC00D3F84432C3F34233C2F83C35FFF7CAFFA6
:1018EC0030B16D4AD2F8FC3023F08073C2F8FC3072
:1018FC0002F045FF40B14FF080430022C3F80C21A9
:10190C00C3F81021C3F83825FFF7B4FF20B14FF00E
:10191C0080430322C3F8A025FFF7ACFF60B15F4BF7
:10192C000522C3F810260122C3F888260022C3F82A
:10193C0018263F22C3F814264FF08053D3F83021D9
:10194C00511C09BF4FF07043D3F8343193F8E02F9A
:10195C00D3F8E83F08BFC3F30313062A4DD1033B6A
:10196C00042B03D84E4AD35C002B46D04FF0805248
:10197C004C4BD2F80414C3F82015D2F80814C3F851
:10198C002415D2F80C14C3F82815D2F81014C3F887
:10199C002C15D2F81414C3F83015D2F81814C3F857
:1019AC003415D2F81C14C3F84015D2F82014C3F81F
:1019BC004415D2F82414C3F84815D2F82814C3F8E7
:1019CC004C15D2F82C14C3F85015D2F83014C3F8B7
:1019DC005415D2F83414C3F86015D2F83814C3F87F
:1019EC006415D2F83C14C3F86815D2F84014C3F847
:1019FC006C15D2F84424C3F8702502F0C0FE48B12F
:101A0C004FF080534FF08042D3F8583203F04F031D
:101A1C00C2F8E43E02F0B3FE48B14FF08043D3F875
:101A2C000024D20744BF6FF00102C3F800244FF02A
:101A3C008053D3F83021062A26D1D3F83431033B16
:101A4C00042B02D8184AD35C63B1184AD2F83C373D
:101A5C0043F48063C2F83C374FF08053D3F83031F5
:101A6C00062B11D14FF08053D3F83431033B042BA8
:101A7C0002D80F4AD35C3BB14FF01023D3F80822A5
:101A8C004FF08043C3F8582508BD00BF003001401B
:101A9C0000C007400DF0ADBA00ED00E00050004072
:101AAC00D953000000C00040D45300000010004087
:101ABC00CF530000F7B5044618B1012823D003B06A
:101ACC00F0BD4FF080430222C3F80823C3F8040191
:101ADC00D3F804210122DA60064601238DF8073081
:101AEC0042F210754FF08047D4B1012CE7D1D7F8F2
:101AFC000C3403F48033AEBB83B3012002F04EFEF2
:101B0C00013DF4D12AE04FF080430022C3F80803D2
:101B1C00C3F80021D3F8002158600DF10706DCE76B
:101B2C00D7F8183403F480333EB9002BC7D001200A
:101B3C0002F034FE013DF3D1C1E7D7F8182402F0CE
:101B4C0003023260002BBAD09DF80700012803D1A4
:101B5C0002F024FE013DC7D1012CB0D1054B00226F
:101B6C005A71ACE7D7F80C2402F001023270002B4A
:101B7C00EAD1F3E7FC010020044B1A7922B90122C7
:101B8C0018609A800248704702487047FC01002098
:101B9C000000AD0B0C00AD0B38B510B1012843D0D3
:101BAC0038BD4FF08042D2F81814D2F81834C8035C
:101BBC002ED503F00303012B04D013B10020FFF743
:101BCC0079FF00234FF08042C2F818350023C2F889
:101BDC000431D2F804310223C2F80433184AD2F883
:101BEC00FC0040F08073C2F8FC30164B1C6844F0CB
:101BFC00010119605D685968491BB1F50A5FFAD398
:101C0C001C604FF08043C2F8FC0001229A60C7E7C9
:101C1C00D2F81434D907D4D5D2F81C349B07CDD4C0
:101C2C000223C2F80433BBE74FF080430022C3F811
:101C3C000021D3F80021C3F804031860B0E700BFFB
:101C4C0000ED00E0001000E010B54FF08043D3F839
:101C5C0000216AB10022C3F80021D3F8002101222F
:101C6C00C3F80823114B587910B95A711B6898475F
:101C7C004FF08043D3F8042172B10022C3F8042141
:101C8C00D3F80421D3F81824D3F81824920704D1DC
:101C9C000122C3F818259A6010BD0222C3F808234C
:101CAC00024BBDE810401B6801201847FC010020C6
:101CBC00CB7B10B433B9D1E900420368C3F80845B3
:101CCC00C3F80C2503688A68C3F8242503793C22E1
:101CDC005343054AD3582BB1006810BC40F307306E
:101CEC00FEF7C8BC10BC70470402002013B53B4B78
:101CFC0001930023C0F80431D0F80421C0F824313A
:101D0C00D0F82421C0F81C31D0F81C21C0F80831BF
:101D1C00D0F80821C0F800324B6381F82F30012332
:101D2C00036291F82D209A4218BF83604B6B8A6A2C
:101D3C00934204460ED24A6AD35CC0F81C350B6839
:101D4C0003B340F286238B608B682548C4F80433B8
:101D5C0002B010BD91F82C3013B10123C361EEE732
:101D6C000B6A13F0400F4FF0010316BFC3614361C0
:101D7C0081F82D30E3E7204602F021FD28B1019BCC
:101D8C00013B0193019B002BF5DC91F82F305BB9E3
:101D9C001348019B002BDBDC0023C4F80035052322
:101DAC001048C4F80035D3E7D4F8C434C4F8C434AC
:101DBC008BB10D4A0B4813F0010F18BF104613F0EE
:101DCC00020F02F1010218BF104613F0040F074B6B
:101DDC0018BF1846DDE70348DBE700BFA08601000B
:101DEC000000AD0B0100AD0B0000AE0B0200AE0B02
:101DFC0013B5334B01930023C0F80431D0F8042100
:101E0C00C0F82431D0F82421C0F81C31D0F81C21A2
:101E1C00C0F80831D0F808214B6381F82F308B6A59
:101E2C00012B044617D10B6A5B0614D40223C4F8A9
:101E3C0000320123236291F82D20022A18BF23605F
:101E4C000B688BB140F286238B608B681D48C4F8FD
:101E5C00043302B010BD0123E9E7204602F0AFFCC9
:101E6C0028B1019B013B0193019B002BF5DC91F800
:101E7C002F305BB91348019B002BEADC0023C4F81C
:101E8C00003505231048C4F80035E2E7D4F8C43413
:101E9C00C4F8C4348BB10D4A0B4813F0010F18BFB2
:101EAC00104613F0020F02F1010218BF104613F096
:101EBC00040F074B18BF1846DDE70348DBE700BFEC
:101ECC00A08601000000AD0B0100AD0B0000AE0BB5
:101EDC000200AE0BF8B506792A4D4FF03C0C0CFB0A
:101EEC0006FC05EB0C0494F82E70002F3DD1A76076
:101EFC0045F80C20636084F82D7084F8317084F8F8
:101F0C00307051B34B7B84F838308F7B84F8397048
:101F1C000FBB0A6802F01F03520928D19B0003F182
:101F2C00A043DFF864C0D3F8004740F20C6704EA22
:101F3C000C043C43C3F800474C6804F01F036409CD
:101F4C001AD19B0003F1A043D3F8002702EA0C023C
:101F5C003A43C3F80027FFF7ABFE3C2303FB0655BF
:101F6C000A48012385F82E30F8BD0948FCE703F533
:101F7C00E07357F82330FFDE03F5E07352F823309B
:101F8C00F9E700BF04020020F0F8FCFF0000AD0BE5
:101F9C000500AD0B036802790521C3F80015044B4D
:101FAC003C2101FB0233022283F82E20704700BF34
:101FBC000402002003680B4A0179C3F80823D3F804
:101FCC00002222F00302C3F800220022C3F80025ED
:101FDC00054B3C2000FB0133012183F82E1083F8C4
:101FEC003020704786420400040200202DE9F0479F
:101FFC00314F0479D0F800903C2303FB04730D4659
:10200C0093F82D30012B944604D10B78012B06D17B
:10201C002A4811E0022B02D10B78012BF8D13C2677
:10202C00274BC9F8083306FB047696F830302BB1F1
:10203C00B3682448C9F80433BDE8F0878CF0040376
:10204C00C3F3800386F83030C6F820C0A846B8E841
:10205C000F0006F10C0EAEE80F00D8F80030CEF8E9
:10206C0000306B68B362EB6873626B78C9F88835C3
:10207C002B78C4EB041A012B07EB8A0A17D09BB9F7
:10208C00CCF3401C3C2303FB04735146484683F8B5
:10209C002CC0FFF72BFE3C235C433A193B59002B19
:1020AC00CAD182F83030C7E74FF0010CEAE751464D
:1020BC004846FFF79DFEEEE7040200200500AD0B3D
:1020CC00864204000B00AD0BF0B5324C324887B0A1
:1020DC00214602F074FB002859D194F82F70FFB9F7
:1020EC00227B931E012B1BD8606AA369984217D1DF
:1020FC00E36963626369A362236A274884F82D70DD
:10210C00C3F34013032A84F82C3004D107B0BDE884
:10211C00F040FFF7EBBD07B0BDE8F040FFF768BE3D
:10212C001E4E0FCE01AD0FC533682B6047B31A4A54
:10213C00D2F8C434C2F8C43413F0020106D001231F
:10214C008DF80030002384F8303007E013F00402DF
:10215C0009D002238DF8003084F83010D4E9003116
:10216C006846984713E013F0010305D003238DF85C
:10217C00003084F83020F1E704228DF80020E2E7EB
:10218C00236A8DF800705B0784F83070E6D507B0D1
:10219C00F0BD00BF040200200030004010020020FF
:1021AC00F7B5064602F0ADFB084602F0AAFB01A803
:1021BC00019602F09CFB019B2E4D00EB83000C461C
:1021CC00D0F80037019440F20D612B400B43C0F85E
:1021DC00003701A802F08BFB019B00EB8300012769
:1021EC00D0F800372B400B43C0F80037042002F026
:1021FC00D5FA092501A8019402F079FB019AD0F8CF
:10220C001035D340DB0715D401A8019602F06FFB03
:10221C00019B07FA03F3C0F80C35042002F0BEFA58
:10222C00304602F06EFB013D042002F0B7FA15F0C7
:10223C00FF05DFD101A8019402F059FB019A01239B
:10224C009340C0F80C35042002F0A8FA204602F0A6
:10225C0058FB042002F0A2FA01A8019402F047FBFB
:10226C00019AD0F810350448D34003F00103C01A8A
:10227C0003B0F0BDF0F8FCFF0100AD0B38B5034620
:10228C004FF02002EFF3118582F31288BFF36F8FAA
:10229C0002F060FD064A1458184602F06CFA85F3F9
:1022AC001188BFF36F8F2046BDE83840FEF712BD92
:1022BC0008000000104B70B553F82040013053F863
:1022CC002060A64200D870BDD4E9003595B153B159
:1022DC002846984738B10028B8BF4042EB68FF2821
:1022EC00A8BFFF201870EA68537843F001035370BD
:1022FC000834E6E79847FBE7A052000008B50A4B04
:10230C00012203201A70FFF7D5FF00F00FFE042006
:10231C00FFF7D0FF00F00CF902F002F8034A137B30
:10232C0023F00103137308BD76020020D8000020AF
:10233C0008B50348034A0021121A02F0F4FA08BD4A
:10234C00380000207802002070B5002386B00122EE
:10235C00CDE90423194E1A4D01930F22CDE9023217
:10236C001849142303FB005506EBC01604464FF422
:10237C00C070154B00954FF4A07200FB0411304651
:10238C0000F096F8737B114AEE6023F0040373732C
:10239C004FF4046304FB033313446B600C4B2C7439
:1023AC00BFF35B8F53E8001F013143E80012002A92
:1023BC00F8D1BFF35B8F06B070BD00BF5800002092
:1023CC0044020020C00A002047490000800200207F
:1023DC004002002080B50020A6B0FFF76BFF2D4B0C
:1023EC0083F308882C4D2D4E6B692D4F43F40073ED
:1023FC006B610024E02385F82230EC772C766C7628
:10240C00AC7685F820406B6A43F4E0236B6285F868
:10241C002340FEF7C1FBFEF70DF94FF0FF33AB6223
:10242C00EB62FEF705FDFEF76BFC40F20113ADF815
:10243C00243006ABB360CDE91E44219402F072FA4D
:10244C000120FFF737FF0220164DFFF733FF00F096
:10245C0009FB154B75610593012314490094CDE9D3
:10246C0003434FF480623B46CDE90144284600F01B
:10247C001FF86A7B064622F0040228466A7302F0B3
:10248C00A2FA2046FFF760FF3A4631462846FEF78F
:10249C00D3F900BFC00A002000ED00E04402002088
:1024AC0009230000D8000020F7530000400C002046
:1024BC002DE9F04385B00732994600F1580322F01C
:1024CC000706C0E91633109B037306F1400504237D
:1024DC00002743730D440F9B83738846C0E906772E
:1024EC0029468760C7730446FEF7D6F908F1400306
:1024FC000730C4E9183620F007000E9BA066029343
:10250C000D9B01932D1A0C9B00932A464B4641467A
:10251C002046FEF75FF9054B67659B6803B1DB6EE0
:10252C00E366284605B0BDE8F08300BF44020020F6
:10253C002DE9F043294C2A4D87B02646AE4204F1D2
:10254C002C040FD300F05EFA244CDFF898904FF473
:10255C00004640F2E737AC4220D307B0BDE8F04369
:10256C0000F064BA54F8043C059354F80C3C049302
:10257C0054F8103C039354F8143C029354F8183C50
:10258C00019354F81C3C009354E9092354E90B01C2
:10259C00FFF78EFF54F82C3C5E65CEE7636A5A1C3D
:1025AC000DD023EAE37300213846C3FB060151EA40
:1025BC00C333D4F8008004D1404600F0D3F92C3456
:1025CC00C9E74FF47A720023FDF782FD02460B46F1
:1025DC0008F11800494600F0AFFBF0E7FC4E000094
:1025EC00FC4E0000374A000038B504464FF020037B
:1025FC00EFF3118583F31288BFF36F8F02F019FA92
:10260C0048B10022826702F0DEF929460748BDE88E
:10261C00384000F095B9D4E902329A4218BF013320
:10262C00A36085F31188BFF36F8F38BD770200204C
:10263C0013B54FF02004EFF3118184F31288BFF32C
:10264C006F8F846844B1013C846081F31188BFF3BF
:10265C006F8F002002B010BD52EA030406D181F343
:10266C001188BFF36F8F6FF00F00F3E7CDE90023F4
:10267C000246024800F046F9ECE700BF7702002062
:10268C00C3897F2B12D80A4B1B6863B1094B90F995
:10269C000E201B689A4209DB437BDB0606D1064BF6
:1026AC00C31A18BF012303F0010070470023FAE797
:1026BC006C0200206802002058000020044BC01A55
:1026CC00044BC0105843044B01221A54704700BFEE
:1026DC0058010020ABAAAAAA7702002070B50E4BB5
:1026EC000E4C1E7C06EB460304EBC3040546204649
:1026FC0002F0D1F90A4B002228469A55FFF7C0FF89
:10270C0048B1084B08491A68013A2046D317BDE86E
:10271C00704000F011BB70BD440200205801002035
:10272C00770200206C020020C926000038B50D4D40
:10273C002B4653F8184F9C4200D004B9EC68AB6898
:10274C0038B95A7BD20604D1A26912B9DA897F2A28
:10275C0005D89C4202D02046FFF7C0FF23466B6190
:10276C0038BD00BF4402002070B590F90D20437BAA
:10277C00002A014604DA03F07F03437302F0E9F800
:10278C004B7B154A63F07F0310464B7350F8183F90
:10279C00D469834208BF002323B9C1E90004216036
:1027AC00D1610CE091F90E5093F90E60B5420ED048
:1027BC00AE420CDD5868C1E9003001605960906888
:1027CC00431A5842BDE870405841FFF7AFBF9C42D6
:1027DC00E3D01B68E0E700BF4402002070B490F91E
:1027EC000D30427B002B29DBD30627D183692BBB11
:1027FC00134962F07F0242730A4652F8184F944212
:10280C0018BF2346CC6923B9C0E900242060C861F5
:10281C000CE090F90E5093F90E60B5420AD0AE421E
:10282C0008DD5A68C0E900321060586070BC0020A6
:10283C00FFF77CBFA342E7D01B68E4E770BC70478E
:10284C004402002008B590F90D20437B002A014674
:10285C0004DA03F07F03437302F07BF8044B9868AF
:10286C00431A58425841BDE80840FFF75FBF00BF0C
:10287C004402002070B515461C46064602F07BF853
:10288C00B4F1FF3F08BFB5F1FF3F08D02A462346FD
:10289C0006F118000249BDE8704000F04DBA70BD59
:1028AC00374A000038B54FF02003EFF3118583F35E
:1028BC001288BFF36F8F104B104A9C681068A042AF
:1028CC0006D1FFF70BFF85F31188BFF36F8F38BD6F
:1028DC0000211B7C11600A4AD35C002BF3D02046EC
:1028EC00FFF7CEFE0028EED0637BDB0602D120463C
:1028FC00FFF73AFF2046E4E7440200206402002080
:10290C007702002070B50C480C4D86682E600C4682
:10291C001146DDE904234FF02006EFF3118586F311
:10292C001288BFF36F8F8068FFF7A4FF2046BDE8C5
:10293C007040FDF7F3BE00BF44020020640200208B
:10294C0049B9EFF3058030B9054B5A699B689A4237
:10295C0001D0FDF7E3BE81F31188BFF36F8F704791
:10296C004402002010B54FF02002EFF3118482F3E3
:10297C001288BFF36F8F427B510704D484F3118804
:10298C00BFF36F8F10BD22F004024273FFF726FFD6
:10299C0021460248BDE81040FFF7D2BF7802002064
:1029AC0070B50446183002F076F84FF02003EFF3C0
:1029BC00118683F31288BFF36F8F94F90D20637B1C
:1029CC00002A05DA03F07F036373204601F0C1FF90
:1029DC000B4D637BA86843F010036373031B5842D1
:1029EC005841FFF7A3FE86F31188BFF36F8FAB68D6
:1029FC00A34203D1BDE8704002F043B870BD00BFE4
:102A0C00440200204FF02003EFF3118183F312886E
:102A1C00BFF36F8F044B9A68D37B013BD37381F365
:102A2C001188BFF36F8F70474402002010B54FF030
:102A3C002003EFF3118483F31288BFF36F8F084BDD
:102A4C009A68D37B0133D3730020FFF76FFE84F3B6
:102A5C001188BFF36F8FBDE8104002F012B800BFB1
:102A6C0044020020024B03F11802C3E9062270470E
:102A7C0044020020F8B54FF02003EFF3118583F3E7
:102A8C001288BFF36F8F19498868437B03F07F036B
:102A9C00437301F05EFF8B685A7B084662F07F023D
:102AAC005A7350F8182FCC69824208BF002222B901
:102ABC00C3E900042360CB610CE093F90E6092F93A
:102ACC000E70BE420ED0B7420CDD5168C3E9002136
:102ADC000B6053600120FFF729FE2846BDE8F84043
:102AEC00FDF71CBEA242E3D01268E0E744020020CE
:102AFC0050EA01032DE9F04105460E4603D1FFF7DC
:102B0C00B9FF00202CE0831C71F1FF332ADB01F0AC
:102B1C00D8FF2C184FF02003EFF3118883F31288A1
:102B2C00BFF36F8F114F124BB8681860FFF78AFE16
:102B3C00B86810492A463346183000F0FDF8BA68D8
:102B4C00537B43F0100353734046FDF7E7FD01F050
:102B5C00B8FF201A63EB0303012873F10003D0DBE9
:102B6C00BDE8F0816FF00104241AD3E74402002081
:102B7C0064020020374A0000B1F1FF3F08BFB0F1FA
:102B8C00FF3F08B506D1084B9868FFF709FF4FF0D7
:102B9C00FF3008BDFFF7ACFF4FF47A7380FB0303E3
:102BAC00C00B40EA4340F4E744020020014B986814
:102BBC00704700BF440200202DE9F04104464FF05D
:102BCC002003EFF3118683F31288BFF36F8F037B1F
:102BDC00D9070BD586F31188BFF36F8F404080F374
:102BEC0011884FF0040002DFBDE8F081437B1A0727
:102BFC0004D586F31188BFF36F8FF5E723F020021D
:102C0C0042F00801D20920D14173A36813B12046C8
:102C1C0001F0A7FE04F1180001F03DFF04F1580784
:102C2C004FF00008A56DBD4200D0B5B90120FFF7EB
:102C3C007DFD104B9B68A342DBD1EFF30583002B8A
:102C4C00D7D13046FDF76AFDD3E703F05F0343F0BD
:102C5C000803437301F07DFED7E7284601F081FE9F
:102C6C0005F1180001F017FFC5F878802846FFF72A
:102C7C00B5FDD7E74402002008B50648064A0749C7
:102C8C00121A01F052FEBDE80840054A05490648F3
:102C9C0001F04BBE0000002038000020385400002A
:102CAC00000000003854000000000020034B1B689B
:102CBC000BB9FEF7D5BD0020704700BF7002002095
:102CCC0010B50E4B1C689C4204D1FFF7EFFF6FF060
:102CDC00004010BDFFF7EAFF002CF8D0D4E9043215
:102CEC001B1A62EBE072B3F1004F72F10001EEDAE5
:102CFC00002AACBF18460020EBE700BF2C000020D8
:102D0C0030B570B10B4B5B6898420AD0036843B185
:102D1C00D3E90421D0E90445121941EB0501C3E9BB
:102D2C000421D0E9003213605A600023C0E900335B
:102D3C0030BD00BF2C000020B3F1FF3F08BFB2F143
:102D4C00FF3FF8B504461D4616465CD081604FF037
:102D5C002003EFF3118783F31288BFF36F8F0132D7
:102D6C0075F1FF3324DA2D49D1E900206FF001030E
:102D7C009B1A4FF0FF3262EB00009E1B60EB0500CC
:102D8C00012E70F1000301DA01260020C4E9046071
:102D9C00234ED6F800C07568B44508BF4FF0000C40
:102DAC00BCF1000F0DD1C4E900652C6074601CE00F
:102DBC00FFF77CFF013645F10005361845EBE07056
:102DCC00E4E7DCE90420D4E90431934271EB000E12
:102DDC001ADAD21ADCF8043060EB0100CCE90420DA
:102DEC00C4E900C31C60CCF804403368B34206D07D
:102DFC009C4204D1FFF764FF0021FEF7FDFC87F332
:102E0C001188BFF36F8FF8BD9B1A61EB0001AC45C5
:102E1C00C4E90431C7D0DCF800C0C1E77001002060
:102E2C002C0000202DE9F84F4FF02003EFF3118C0C
:102E3C0083F31288BFF36F8FDFF8B0A0DFF8B09088
:102E4C002C4FC9F80000DAF800000024504508BFE8
:102E5C0000200025D7E90021D9F80030E04680B3E6
:102E6C00D0E9046C4FEAE37EB3427EEB0C0B05DA3F
:102E7C00F61A6CEB0E04C0E9046422E0B21841EBC4
:102E8C00E671C0E90445C7E90021FFF739FF88F373
:102E9C001188BFF36F8F836898474FF02003EFF3CF
:102EAC00118883F31288BFF36F8FD9F80030DAF8EA
:102EBC0000009B1B5045C446C9F80030CAD1D7E965
:102ECC0000219A1841EBE3730024C7E90023C9F8E9
:102EDC000040FFF7F5FE2146FEF78EFC88F31188C3
:102EEC00BFF36F8FBDE8F84FFFF7DCBC2C00002060
:102EFC00700200207001002010B54FF02003EFF39A
:102F0C00118483F31288BFF36F8FFFF7CFFE064A4D
:102F1C000346D2E90001181841EBE37184F31188E0
:102F2C00BFF36F8F10BD00BF70010020014801F08E
:102F3C00FBB900BFFF5300002DE9F0410126074605
:102F4C00B24201DCBDE8F0813B461F4613F8014B51
:102F5C00002CF7D0252CF8D11C78252C07F1020772
:102F6C00F2D00023DFF804819C461D461F2D18D893
:102F7C00A4F1200EBEF1100F09D9A4F1300EBEF150
:102F8C00090F1ED80A2404FB03E3202504E028FAC9
:102F9C000EFE1EF0010F06D017F8014B002CE5D1E8
:102FAC0028E07F2D1CD8A4F1300EBEF1090FE9D911
:102FBC00242C10D1BCF1000F46D0B34246D00023D4
:102FCC00EAE724F0040EBEF12A0FF8D06C2C09D1DC
:102FDC0045F08005E0E724F0040EBEF12A0FEED098
:102FEC006C2C22D06C2C1BD8682C23D06A2C28D0AB
:102FFC004C2C26D0BCF1000FA4D0B445A0D144F089
:10300C002007A7F1650CBCF1020F0B6801D9612FE9
:10301C001ED1073323F0070308330B6001368EE70C
:10302C00742CB9D07A2CB7D0E4E72C0648BF45F401
:10303C000075CDE7EC0548BF45F4007545F4807587
:10304C00AAE745F42075A7E79C46B8E76324D6E7C2
:10305C00692C02D007D8632C03D02F0601D5AC0500
:10306C00D7D40433D9E7732CF6E700BF89280100C5
:10307C002DE9F04F95B04368039383789B07CDE916
:10308C000A12804611D50D920B4600261F7877B197
:10309C00252F10D001330993039B4146384698479E
:1030AC00002806F1010680F22E854FF0FF363046DF
:1030BC0015B0BDE8F08F5F789A1C252F0992EBD0E4
:1030CC0000242546A246A346BBF11F0F32D8A7F118
:1030DC002003102B0AD8DFE803F02409092A090978
:1030EC00091B09090922092709091900A7F130034D
:1030FC00092B2DD92A2F39D154B90D9B1BF0400F18
:10310C0053F8042B0D9329D0154601E04BF0010B1D
:10311C00099B13F8017B0993002FD5D156E04BF096
:10312C00020B4BF0040BF3E74BF0080BF0E74BF002
:10313C00100BEDE7BBF17F0F3FD8A7F13003092B44
:10314C00D8D81BF0400F03D00A2202FB0535DFE76D
:10315C000A2202FB0A3A4BF0200BD9E7B2F1000A23
:10316C00F9DACAF1000A4BF0280BD1E72E2F05D162
:10317C001BF0400F9BD14BF0400BC9E7242F1CD107
:10318C00002C00F08A800B9B0D931BF0400F0AD192
:10319C0052460A980DA9FFF7CFFE0D9B1A1DD3F8C6
:1031AC0000A00D92B4E72A460A980DA9FFF7C4FEB9
:1031BC000D9B1A1D1D680D92AAE76C2F5AD052D880
:1031CC00682F5FD06A2F65D04C2F63D034B10B9B26
:1031DC000A980D9322460DA9FFF7AEFE002D47F07D
:1031EC002003B8BF2BF0400B0793A3F16503BCBFC2
:1031FC001FFA8BFB0025022B54D947F02003612BBF
:10320C0040F06383FF4307F0200308930D9B0733C3
:10321C0023F0070303F108020D924BF4C052049201
:10322C001A6805925A68DDF814C0C2F30A57C2F343
:10323C00130047EA0C0353EA000401460BF0400468
:10324C004FEAD27259D13027D2B28DF83D708DF839
:10325C003C20A7B2002C00F0BF810C2D4FF00007D2
:10326C005DDD0D25B2E0742F3FF452AF7A2F3FF4A1
:10327C004FAFABE71BF0800F18BF4BF4007B4BF04C
:10328C00800B45E71BF4807F18BF4BF4007B4BF49D
:10329C00807B3DE74BF4207B3AE72546AB46544612
:1032AC00AA4635E7FF4307F0200308930D9B07332D
:1032BC0023F0070303F10802D3E90001079B0D92E9
:1032CC001BF0400F08BF0625652B40F099816B1C45
:1032DC000022DBB24BF4805B1446112BCDE90024A9
:1032EC0028BF11230EAA00F0ADFCC3B20593022334
:1032FC000E9FCDF810B0069380E0002F00F03B81BC
:10330C003123D2B28DF83D30A7F2FF378DF83C2037
:10331C00A3B2002C00F057810C2D00F35681C5F19F
:10332C000D018900012301F1FF39A1F12104C1F143
:10333C00210E23FA0EFE03FA04F403FA09F344EA0D
:10334C000E0413EB030E44EB0409DEF1000BCDF875
:10335C0018B069EB490BCDF81CB0DDF814B01EF1B8
:10336C00FF3E49F1FF390EEA0B0E09EA00097345DD
:10337C0074EB090912DBC1F12009B1F1200E00FA3E
:10338C0009F92BFA01F141EA09015CBF40FA0EFE82
:10339C0041EA0E0111F0010F00F0F0800599CB18F5
:1033AC0040EB0400B0F5801F9C46C0F2E7809DF80E
:1033BC003D10B7F5806F01F101018DF83D1000F063
:1033CC00E980069A07991A4013460140089A0D2085
:1033DC00C2F1570403F00F021B0943EA01730911F0
:1033EC00002A40F0FE80854280F2FD800138F1D148
:1033FC000E230120CDE905307023079307F1090254
:10340C00122A3B4600F2D1809DF83CB00BF00C091F
:10341C001BF0010B40F02D81049B9A0700F12381D6
:10342C0013F0040400F00281B9F1000F40F0278181
:10343C004FF02009049B13F4405F23D1059B5033BC
:10344C00002D6B4408BF0125133B059A22B113F8DC
:10345C00012D302A00F04781049B13F0100F059BBF
:10346C0018BF2B46381DC0F24381BD4240F340814A
:10347C00049A42F4005292B2BB42049240F33A8155
:10348C007D1C5D1B049B13F4005B00F0358127EA67
:10349C00E7740134B9F1000F00D00134002D00F0B5
:1034AC0034816B1C1C44049BA245CCBFAAEB0404C6
:1034BC00002413F0090F04D13444A64240F02A81B1
:1034CC000024B9F1000F08D0039B414648469847A9
:1034DC00002806F10106FFF6E8AD049B1A0513D58A
:1034EC00039B4146302098470028FFF6DEAD089B31
:1034FC00C3F178004146039B00F0F8009847002880
:10350C0006F10206FFF6D1AD049B1B0705D434442B
:10351C00B44240F0098126460024BBF1000F00F0B4
:10352C00348127EAE77AA7EB0A0B6D42059B5B45D2
:10353C0084BF0EAB5B440AF1FF3A8CBF5879302044
:10354C00554506F1010900F3F980039B4146984764
:10355C0000280BF1010BFFF6A8ADBAF1FF3F08D123
:10356C00039B41462E2098470028FFF69EAD06F19E
:10357C0002094E46DAE730230127C2E6069B03EA2E
:10358C000C0C079B03401846B7F5806F26D15CEAFC
:10359C0000001CD042F008028DF83C204FF48067EC
:1035AC000E230593702307933B4603F16302C62A4F
:1035BC003AD903F2E73340F2CE7293428CBF042324
:1035CC000323069320E71D46DEE70D25DCE742F0DA
:1035DC0004028DF83C20E3E73D46F7E663460146DE
:1035EC00F4E6092A09D830320DF1380C84448542AE
:1035FC008CF80520B8BF0546F8E62244D2B2F3E7B2
:10360C00079B662B05D14BF4005B2C460122112342
:10361C0063E6EBB2012B4FF000024FF0650738BFA9
:10362C0001231446079758E60223CAE7B9F1000FA5
:10363C003FF400AFBAF1030F34DD049B1F07AAF16E
:10364C0003042FD43444039B414620209847002880
:10365C0006F10106FFF629ADA642F4D1BBF1000F2D
:10366C0036D0002415E0B9F1000F2BD14FF02B0907
:10367C00E0E6B9F1000F28D14FF02D09DAE64FF052
:10368C00200BBAF1040FECDD049B1D07AAF1040416
:10369C00D8D5039B414658469847002806F10106A9
:1036AC00FFF603AD9DF83C309F4D13F0080F9F4B78
:1036BC0008BF1D462F46B94617F8010B50B9751BAC
:1036CC00A9445DE04FF02B0BDBE74FF02D0BD8E757
:1036DC005C46E7E7089BC01A4146039BC0B298477B
:1036EC000028E8DAE1E4059A013AD2B20592ACE698
:1036FC005D1EC7E60025C5E6049B13F4006F069B10
:10370C000CBF032405241C44C4E6049BD90648BF03
:10371C000134C8E6039B414620209847002806F157
:10372C000106BFF6CAAEC0E4039B41463020984761
:10373C00002806F10106BFF6EBAEB6E4BA450AD195
:10374C009DF83D30352B1ED805D19DF83C3013F03B
:10375C00100F08BF3120039B414698470028FFF605
:10376C00A4AC049BD8060BD5BAF1FF3F08D106F1E7
:10377C00020941462E20039B98470028FFF695AC82
:10378C004E464C4446E23120E5E79DF83D00312899
:10379C001EBF9DF83C3023F010038DF83C304146A1
:1037AC00039B98470028FFF680AC002D6DDD039B32
:1037BC0041462E209847002806F10209FFF675AC09
:1037CC0001263346059A96423BBF50336B4430205A
:1037DC0013F8130C039B41469847002809F1010983
:1037EC00FFF663AC0136F6B2AE423346EADDDDE9F4
:1037FC000732981A4146039BC0B298470028FFF63F
:10380C0054AC002F04DB4FD19DF83C30DB064BD57C
:10381C007F422D20039B414698470028FFF645AC7C
:10382C00069B042B42D14FF47A7697FBF6F505F103
:10383C003000039B4146C0B29847002809F10309A8
:10384C00FFF633AC06FB1577642697FBF6F505F10E
:10385C003000039B4146C0B29847002809F101098A
:10386C00FFF623AC06FB15770A2697FBF6F505F158
:10387C003000039B4146C0B29847002809F101096A
:10388C00FFF613AC06FB157718E0049BDA0602D49E
:10389C0006F10109ABE7039B41462E20984700280F
:1038AC0006F10209A3DA00E42B20B3E7069B032BF5
:1038BC0009F10209C8D0069B012BD5D107F13000C4
:1038CC0009F101094146C0B255E7A7F16303122B78
:1038DC0000F20081DFE813F013005800FE00FE0038
:1038EC00FE00FE005800FE00FE00FE00FE00FE0082
:1038FC001A01F900FE00FE002C00FE00BA000D9B20
:10390C001A1D1B680D928DF8383001240EAF1BF078
:10391C00080F2ED007EB04093D46A9452BD1F71B08
:10392C00B944AAEB04042BE72B54000027540000E5
:10393C000D9B1A1D0D921F68AC4B002F08BF1F4624
:10394C001BF0400F14BF29464FF0FF31384601F0F1
:10395C00BDF80446DBE7039B41462020984700282E
:10396C00FFF6A3AB013DA542F5D85644761BAA46FB
:10397C00D0E75546F7E715F8010B039B41469847EE
:10398C000028CADAFFF791BB1BF0800F0D9B3CD0CF
:10399C001BF4007F34D0073323F00703D3E9000175
:1039AC0003F108020D922BF0100900291FFA89F976
:1039BC003DDA404261EB410149F480690DF1380B6D
:1039CC000A235A4601F08EF819F0400FA0EB0B0BAE
:1039DC0065D029F001025D4592B240F3B380002F0F
:1039EC0000F0AB8019F010032C46914640F0AD80EE
:1039FC0040F2064319EA03031CBF0134002355E0CF
:103A0C001A1D18680D92C117CDE71A1D1BF4807F83
:103A1C0019680D9201D10846F5E71BF4007F15BF1C
:103A2C0048B208B241F3C01141F3C031BBE750EAD0
:103A3C000103C3D11BF0400FC0D0002DBED12BF021
:103A4C00110B1FFA8BF9AB462C46D1E72BF0100B60
:103A5C001FFA8BFB0A231BF080040D9A59D01BF420
:103A6C0000711DBF073222F0070202F10801101D80
:103A7C0019BF0D91D2E900010D90106850EA0102B6
:103A8C0054D12BF016091BF0400F1FFA89F951D0B5
:103A9C00002D4FD12BF0170B1FFA8BF9AB4619F0F9
:103AAC00100354D0002F4FD10BF1010419F0080F63
:103ABC0060D119F0010F06D0A2456FDDAAEB04040A
:103ACC0004EB0B05544622464FE04BF0100B102331
:103ADC007827C0E747F02003782B05D1582F14BF67
:103AEC0010234FF40473B6E7039B414625209847F7
:103AFC000028FFF6DAAA039B41463846984700286F
:103B0C00FFF6D3AA0236099BFFF7C0BA0823002799
:103B1C00A1E7111D0D911BF480711068AED01BF440
:103B2C0000711ABFC0B2214680B2A7E72BF0060B7A
:103B3C001FFA8BF90DF1380B43E729F011091FFA25
:103B4C0089F981E79146AAE75C460234AEE75C4608
:103B5C004EE7CDE904234146039B202098470028DB
:103B6C00FFF6A3AA049A059B01329245F1DC341BA3
:103B7C00A6181446A3B1039B414630209847002851
:103B8C00FFF693AA87B3023641463846039B984703
:103B9C000028FFF68AAAB14635441CE05D4692E740
:103BAC0040F2064319EA030FF5D019F0020F14BFC7
:103BBC002B20202019F4806F06F10106414618BF16
:103BCC002D20E3E7039B414630209847002809F15C
:103BDC000109FFF66AAAA5EB09035B45F2DC5D4619
:103BEC000EAE2DB9D9449CE60136D4E72F54000013
:103BFC00013D039B705D414698470028F1DAFFF7C1
:103C0C0054BA039B414620209847002806F1010630
:103C1C00FFF64BAAA31B002BF3DC74E71FB502AB1A
:103C2C000093074A4FF0CC3301F043F8DDE9020171
:103C3C00C00840EA4170C90805B05DF804FB00BF3C
:103C4C00CDCCCCCC2DE9F04F9BB0044605920A4666
:103C5C000A93C2F30A559DF890300B93D20FC1F31F
:103C6C0013030992090D85B950EA03021CD1059A78
:103C7C0030235371099B957143F002031371156046
:103C8C00012738461BB0BDE8F08F40F2FF72954219
:103C9C004AD10343099B059A14BF43F0080343F030
:103CAC00040313710027ECE700F0010208924FEABD
:103CBC0083080122AB4D48EA907887009A46164655
:103CCC00C5F1000B5846069200F01CFBB5F1FF3F06
:103CDC00ACBF8146A0F10109ABEB090B09EB050365
:103CEC005846049300F014FB16A9A0F17D05584624
:103CFC0000F012FA12AB069A0193A9EB050510AB72
:103D0C000292009320462B4616AA514600F016FF4D
:103D1C00B9F1010F04460D4600F2D280089B002B2E
:103D2C0040F0C58001276BE043F4801A00F00102DB
:103D3C004FEA8A080343A5F23545089248EA907881
:103D4C004FEA800749D140F2FE7319420CBF01269D
:103D5C000026002D3246B3DB284600F0CDFA032DA9
:103D6C00C8BF0138049000F0D3FA049B7C305D1B73
:103D7C00054416A9184600F043FA12AB019310AB98
:103D8C00009320462B46029616AA514600F0D6FE0A
:103D9C00049B152B04460D4600F2868014AB724A28
:103DAC00009338464FF0CC33414600F082FF149B11
:103DBC00159A9B0843EA827303EB8303BB42DDE94C
:103DCC00109A0CD13846414600F08EF9049B834280
:103DDC008CBF00270127002612E00126B9E7089BBB
:103DEC00002B51D1013F48F1FF31B81B61F10001AB
:103DFC0000F07AF9049B089F83428CBF00260126B1
:103E0C000B9B002B40F09080DDF828B04FF00008A1
:103E1C00CDE906884FF00A0ADDE91001FFF7FEFE36
:103E2C00129B0E93CDE90C0118461399FFF7F6FE81
:103E3C000C9B0D9A0F9198420B469341814680F052
:103E4C008D8020462946FFF7E9FE0E9A0AFB09F3FE
:103E5C00934214BF002606F001060C9B10930D9B99
:103E6C00CDE911390F9B1393079BB8F1000F14BFC9
:103E7C00002707F0010701330AFB10485FFA88F8A6
:103E8C00079304460D46C7E7B81C48F1000100F043
:103E9C002BF9049B83428CBF00200120B9EB00005E
:103EAC006AF10002CDE9100200273E46A8E7109BFC
:103EBC00119A013B42F1FF32CDE9103201278AE71A
:103ECC00B9F13E0FF0D84FF0FF33A9F1200003FAFF
:103EDC0009F203FA00F0C9F1200123FA01F10243BF
:103EEC000A4303FA09F327EA030728EA020857EA08
:103EFC0008070CBF012700276DE700FB02FCA1FBA4
:103F0C000012013362448C4275EB020CF5D2049A18
:103F1C00DDF828B01344259A1344012BB8BF0123B4
:103F2C009B45A8BF9B4671E70A2100220123084646
:103F3C00E9E70AFB03F0A2FB0A2301310344944294
:103F4C0075EB0300F5D2594510DDBBF1000F02D122
:103F5C0054EA05030AD00123069372E70A220023D0
:103F6C000121ECE7CCFBFFFFCDCCCCCC002E2FD02D
:103F7C004FF00A0A129B13990D931846FFF74EFE49
:103F8C000D9B0C910AFB00F29A42814620D1DDE98F
:103F9C001001FFF743FE0E900D9120462946FFF7C6
:103FAC003DFE0D9B0E9A1092CDE911390C9B13938B
:103FBC00079BB8F1000F14BF002707F0010701336E
:103FCC000AFB10485FFA88F8079304460D46D1E7C0
:103FDC00DDF81090079B9944002F5DD0B8F1050FC8
:103FEC005AD114F001034DD1069A32B9DDE91223EE
:103FFC009D4208BF944262D0069B18194FF00A04E8
:10400C0045F10001002201262546A04271EB020772
:10401C0058D2E3B1B3451ADA0B9B63B1259ADDF89C
:10402C0028B006EB0903134423EAE3739B45A8BFAE
:10403C009B465E450BDD05304FF00A024FF0000346
:10404C0041F10001FCF744F809F10109013E5E451C
:10405C00A8BF5E4637B20FFA89F9059B09FA86F6B6
:10406C0007F10508013E98444FF00009B94530DBD3
:10407C00059B3B4400225A71059B1A461E60099B06
:10408C001371FEE5069B2BB9DDE912239D4208BF97
:10409C00944209D00123B0E7069B53B9DDE9122302
:1040AC009D4208BF944204D1089B002BF2D1002EF4
:1040BC00F0D0B8F1040F94BF002301239DE74FF01B
:1040CC000408F1E705FB02F7A4FB054201363A446C
:1040DC009BE70A220023FBF7FBFF303208F8012D87
:1040EC0009F10109C2E700BF0A4A70B503464FF057
:1040FC00CC3600204FF0333506FB03F402FB0144B1
:10410C00A3FB023121449D4275EB010401D3013024
:10411C00F2E770BDCDCCCCCC2DE9F04F1A23354E47
:10412C00B0FBF3FA03FB1A0389B004460D4606EB09
:10413C000A1653B9D6E90023C1E90023D6E90201D6
:10414C00C5E9020109B0BDE8F08F2B4A02EBC303AD
:10415C00D3E9008904AB0093D6E9022340464946D3
:10416C0000F0A7FD06AB0093D6E9002383460F466B
:10417C004046494600F09DFDDDE9066216EB0B0654
:10418C0052EB07084FF0000328BF0123814633B1DF
:10419C00049B059A013342F10002CDE9043220461A
:1041AC00039100F0B5F807461A2000FB0AF000F066
:1041BC00AFF83F1A3246434603990097484600F041
:1041CC0093FD4FEA141C0D4A640004F01E0352F8D0
:1041DC002C40DC4004F00304241841F10001C5E933
:1041EC000041DDE9042300973046414600F07CFD98
:1041FC00A6E700BF28500000584F0000B85200003E
:10420C002DE9F04F1A27DFF8E4A000F11905B5FBF2
:10421C00F7F56F433A1A4FEA051B89B004460E4670
:10422C000AEB05150AD1D5E90023C1E90023D5E92C
:10423C000201C6E9020109B0BDE8F08F2C4B03EB7B
:10424C00C203D3E9008904AB0093D5E902234046AD
:10425C00494600F02EFD5AF80B206B68013ACDE967
:10426C00020106A963F1000300914046494600F0A3
:10427C0020FDDDE906528A4602996D18039952EB2E
:10428C0001084FF0000328BF0123814633B1049B82
:10429C00059A013342F10002CDE90432384600F0B0
:1042AC0037F80746204600F033F83F1A2A464346B3
:1042BC0000974846514600F017FD4FEA141C0D4A72
:1042CC00640004F01E0352F82C40DC4004F003049C
:1042DC000134241841F10001C6E90041DDE9042351
:1042EC0000972846414600F0FFFCA2E7F85000007A
:1042FC00584F00000C530000014B5843800C704782
:10430C0041340100014B5843000D7047FB2E0B004C
:10431C00024B5843C00C0130704700BF4F93120042
:10432C0000207047002070470FB407B504A951F85E
:10433C00040B0191FCF73CF803B05DF804EB04B0FE
:10434C00704700EBC100408840087047F8B5034641
:10435C00FFF7F7FFB0FA80F0C0F11F0003EB800C01
:10436C00CA00DCF81060171D0C4606328DB256B927
:10437C00012101FA00F0D9680143D960CCF8104052
:10438C00DD539D52F8BDF1000431585AD85303EB5C
:10439C00C0009E52C5805D52F4E7043A2DE9F0410D
:1043AC00CC1D114424F0070421F007010E1BF70863
:1043BC00B7FA87F2C2F12405AD004FF000080735BB
:1043CC00C2F12002ED0804604146A760C4F80C80DD
:1043DC00920004F1100000F0B4FC6B0043F00103F8
:1043EC00638004EBC5027B1B5900A4F8008051804C
:1043FC00A21924F83550A2F80280A35304EBC7038A
:10440C0029465A8842F001025A802046BDE8F04104
:10441C00FFF79CBF038B13F0070305D10368002B38
:10442C000CBF002003207047022B05D1408BB0FA43
:10443C0080F0400980007047012B05D10368002BE8
:10444C000CBF0020052070470020704710B50C46AB
:10445C0000B111B96FF0150010BD081D00F095F8F2
:10446C000028F9D1A368032BF6D9F3E72DE9F04125
:10447C000D4607461946281D90461E4600F096F834
:10448C00044638B13346424629463846A446BDE870
:10449C00F0416047BDE8F08110B44FF02004EFF319
:1044AC00118284F31288BFF36F8F416110BC01211C
:1044BC00FBF7B0BF38B50C46054658B151B10B6887
:1044CC0043B14B6833B11C22002100F03AFC2C6143
:1044DC00002038BD6FF01500FBE770B505460E46A1
:1044EC00FFF7B4FF041E15DB4FF02003EFF311822E
:1044FC0083F31288BFF36F8F6B8B2C8B4FF6FF718E
:10450C008B4204F0070407D182F31188BFF36F8F3D
:10451C006FF00A04204670BD022C0CD101336B8362
:10452C0082F31188BFF36F8F002322463146284651
:10453C00FFF79CFFEEE7062C14D8DFE804F0041319
:10454C001313041A0400002333606B683BB9C5E9EC
:10455C000066ACB902212846FBF75CFFDAE71E6067
:10456C006E60F6E782F31188BFF36F8F6FF004046F
:10457C00D0E782F31188BFF36F8F6FF08504C9E722
:10458C0082F31188BFF36F8FC4E7034658B14268BA
:10459C0002F00302012A03D0032A04D1026812B1EB
:1045AC000020986070476FF015007047426881607A
:1045BC0002F00302032A4FF0000203460CBF00680E
:1045CC0010465A6070477047FDF758BE01460068A8
:1045DC00FDF754BE00210120FFF7F6BF08B5FCF72C
:1045EC007DF8BDE80840FCF785B90369C9B20C2217
:1045FC0001FB0233186C00F0070070474FF02003EA
:10460C00EFF3118283F31288BFF36F8F036803F00B
:10461C00C00343F00203036082F31188BFF36F8F72
:10462C00704770B5C9B203694FF02004EFF31185E0
:10463C0084F31288BFF36F8F0C2606FB0134246CB5
:10464C0014F0C00408D0A24206D085F31188BFF341
:10465C006F8F4FF0FF3070BD06FB013301221A64DF
:10466C0085F31188BFF36F8F436803EBC1035B685D
:10467C0098470020EFE78022FFF7D3BFF8B5069FDD
:10468C000469C9B24FF02005EFF3118685F3128847
:10469C00BFF36F8F0C2505FB0144256C05F0070C4F
:1046AC00BCF1010F0CD1276486F31188BFF36F8F17
:1046BC00C4E90E23436853F8313098470020F8BD05
:1046CC0005F0C005AF4286F31188BFF36F8F0CBFA6
:1046DC006FF077004FF0FF30F1E713B580240094B2
:1046EC00FFF7CCFF02B010BD10B40069CBB21C2494
:1046FC0003FB0400002110BC1047002000F05DB843
:10470C001046FDF771BFCA074368006905D4C1F3B1
:10471C004202012A04D0022A0AD06FF01500704719
:10472C001B684FF0CC72C3F82425416200207047FF
:10473C001B684FF0CD62F6E730B543681360057A1D
:10474C00446804EBC504A34202D36FF0010030BDF2
:10475C005C798C4201D00833F0E70020F7E700F1D8
:10476C0050039B009BB203F1804303F58833002276
:10477C001A601B68704708B50020FCF755FA4FF01B
:10478C008053D3F83001421C04BF4FF0704393F8B0
:10479C00E00F831F584258417047004700F0BEB8E5
:1047AC0008B50020FBF774FF08B9FBF763FF4FF067
:1047BC0080430022C3F8182508BDFDF77BB930B53E
:1047CC00D0F804312BB10023C0F80431D0F80431F7
:1047DC00012391F82F2022B30022C0F82421D0F815
:1047EC002441C0F81C21D0F81C41C0F80821D0F895
:1047FC000821002B79D0002281F82D2091F82F2050
:10480C00002A37D18D6A4C6BA5421FBF0523C0F817
:10481C000025C0F80035134683F0010381F82F30D2
:10482C0028E0D0F8244114B1C0F824210EE0D0F8CF
:10483C001C216AB3C0F81C41D0F81C214A6B013210
:10484C004A63D0F8245145B1C0F82441D0F8242152
:10485C000122426181F82F20CBE78C6AA24204D25C
:10486C004C6AA25CC0F81C25C3E791F82C201AB145
:10487C000123C361002030BD0A6A12F0400F4FF0D3
:10488C00010203D0C26181F82D20F3E74261B0E749
:10489C00D0F80841002CACD0C0F80821D0F8084161
:1048AC00D0F82441002CBFD14A6B8C6AA242A0D212
:1048BC004C6AD0F81855A5544A6B8C6A0132651EA7
:1048CC00AA424A6308D10A6A540602D40222C0F8EA
:1048DC000022012202628CE7A242FAD10A6A520635
:1048EC0087D5022381F82D30C4E70120C3E7036884
:1048FC0003F01F025B0902600CBF4FF0A0400020C8
:10490C00704707B5019001A8FFF7F1FF019A012349
:10491C009340C0F8083503B05DF804FB08B1FCF710
:10492C00D1BA7047704700F00CBA00F0FCB9EFF345
:10493C000580003818BF0120704708B54FF02002E1
:10494C00EFF3118382F31288BFF36F8FFBF778FEBE
:10495C00F4E7D0E9003213605A600023C0E9003359
:10496C00704708B5FFF7F5FF437B23F00203437351
:10497C000023836008BD38B504460D46FDF762FF81
:10498C00637B43F002036373E5B1A5602B689D4222
:10499C0009D16B68C4E900531C606C6012E06A6852
:1049AC009342F6D01B68002BF3D094F90E2093F9A8
:1049BC000E108A42F3D09142F1DD5A68C4E90032FC
:1049CC0014605C6038BD10B54FF02003EFF3118418
:1049DC0083F31288BFF36F8FFDF700FF84F3118808
:1049EC00BFF36F8F10BD38B504464FF02003EFF3C3
:1049FC00118583F31288BFF36F8F437B13F0280F5D
:104A0C000BD183680BB1FFF7ACFF637B51B903F09B
:104A1C00FB0363732046FDF7E1FE85F31188BFF3BA
:104A2C006F8F38BD03F0EB03F3E701211838FFF764
:104A3C00DABF38B54FF02003EFF3118583F31288FA
:104A4C00BFF36F8F0468A0420DD034B12046FFF73E
:104A5C0088FF04F1180000F01EF885F31188BFF3ED
:104A6C006F8F204638BD0024F7E7034620B9EFF3DB
:104A7C0005820AB9FBF752BE83F31188BFF36F8F1F
:104A8C0070474FF02003EFF3118083F31288BFF3CC
:104A9C006F8FFFF7EABF10B54FF02002EFF31184D0
:104AAC0082F31288BFF36F8F03683BB1FEF728F9CE
:104ABC00002084F31188BFF36F8F10BD6FF01500C9
:104ACC00F7E708B5FEF718FA08BD704710B50246AF
:104ADC0001448A42134603D01C780132002CF8D1D1
:104AEC00181A10BD2DE9F0471D46AB0548BF25F43B
:104AFC0000750746884616464CBF4FF0070A4FF024
:104B0C00270A4FEAE579384641462A464B46FBF7D9
:104B1C00DFFAD4B2092C88BF54443A46434688BFC6
:104B2C00E4B2AA4204F1300473EB090306F8014B1A
:104B3C0007468846E7D23046BDE8F0872DE9F04FAE
:104B4C0087B00618994602AB41EB01040093154659
:104B5C003046D2E900232146DDF844B000F0A9F834
:104B6C0004AB0093D5E9022307468846304621461C
:104B7C0000F09FF8DDE90263841951EB0306049BF6
:104B8C00D5E900014FF0000228BF0122D218059B85
:104B9C0043F10003381848EB0101B84271EB0801EE
:104BAC00D5E902C134BF0120002014EB0C0C46EBFC
:104BBC00010110EB0C0041F10001A04271EB060C5D
:104BCC0034BF4FF0010C4FF0000CCDE90423A9F1D8
:104BDC00410A1CEB020243F10003CDF800A000F0E7
:104BEC0083F8109BC3E90001129B012BDDE9042320
:104BFC0029D1D5E90201D5E900C5201A66EB0101DE
:104C0C00674578EB050534BF01250025401B61F194
:104C1C000001844276EB010534BF01250025521BAF
:104C2C00CDF800A063F1000300F05EF8DDE9042389
:104C3C00CBE90001CDF800A02046314600F054F835
:104C4C0007B0BDE8F08F17EB070E48EB080C2019E6
:104C5C0046EB0601BE457CEB080834BF0127002754
:104C6C00C71941F10008D5E9000186457CEB010C20
:104C7C00D5E9021534BF01200020381A68F1000C68
:104C8C00401A6CEB050192185B41A74278EB0605C4
:104C9C0034BF01250025521943F10003874278EBFC
:104CAC00010834BF01250025521BA9F140050095D0
:104CBC00B8E7F0B50F460446A0FB0201A7FB025271
:104CCC004919A3FB044542F10002A7FB03736118C9
:104CDC0045F10004D219059E43F10003121943F16A
:104CEC000003C6E90023F0BDF0B5059CC4F14007F4
:104CFC00C4F1200602FA06F6A4F12005BB4022FA04
:104D0C0005F53343C4F120062B4301FA06F6A4F152
:104D1C002005E04021FA05F53043BA402843E14034
:104D2C0010431943F0BD0A44914200F1FF3300D106
:104D3C00704710B511F8014B03F8014F9142F9D1AE
:104D4C0010BD02440346934200D1704703F8011B87
:104D5C00F9E7000001480068704700007801002066
:084D6C00A4B3FF7F0100000069
:104D7400C10E0000000000008D0F00009C4D0000DB
:104D8400A1160000000000009D0E000000000000BD
:084D940011120000B04D0000F7
:104D9C0088530000205200003052000034000020E4
:104DAC009C010020A95300004C52000084520000CA
:084DBC00360000200400002075
:104DC400551C0000A747000000000000E14500005A
:104DD40000000000E1450000D5200000A7470000C6
:104DE40000000000E145000000000000E145000073
:104DF40000000000E145000000000000E145000063
:104E040000000000E145000000000000E145000052
:104E140000000000E145000000000000E145000042
:104E240000000000E145000000000000E145000032
:104E340000000000E145000000000000E145000022
:104E440000000000E14500000000000031170000F0
:104E540000000000E145000000000000E145000002
:104E640000000000E145000000000000E1450000F2
:104E740000000000E145000000000000E1450000E2
:104E840000000000E145000000000000E1450000D2
:104E940000000000E145000000000000E1450000C2
:104EA40000000000E145000000000000E1450000B2
:104EB40000000000E145000000000000E1450000A2
:104EC40000000000E145000000000000E145000092
:104ED40000000000E145000000000000E145000082
:104EE40000000000E145000000000000E145000072
:084EF40000000000E145000090
:104EFC00E353000000000000EE530000000000002F
:104F0C0060530000000000009753000000000000F8
:104F1C00C353000000000000A55300000000000077
:104F2C00B6530000000000007153000000000000A8
:104F3C00FC5300000000000084530000000000003F
:044F4C00FFFFFFFF65
:104F50000338FDD870470000010000000000000089
:104F60000500000000000000190000000000000023
:104F70007D00000000000000710200000000000041
:104F8000350C000000000000093D0000000000009A
:104F90002D31010000000000E1F5050000000000D7
:104FA00065CD1D0000000000F90295000000000022
:104FB000DD0EE90200000000514A8D0E00000000E5
:104FC0009573C24800000000E941CC6B010000006D
:104FD0008D49FD1A07000000C16FF2862300000012
:104FE000C52EBCA2B1000000D9E9AC2D78030000A9
:104FF0003D9160E45811000031D6E275BC560000C6
:10500000F52E6E4DAEB10100C9EA2683677808001F
:10501000ED95C28F055A2A00A1EDCCCE1BC2D3005C
:1050200025A4000A8BCA2204000000000000000032
:105030000000000000000010000000000000000060
:10504000B9340332B7F4AD1410DB1AB30892540E1E
:105050000D307D951447BA1A66088F4D26ADC66D82
:10506000F598BF85E2B74511CA96853D92BD1DEB07
:10507000FCA11860DCEF52163C92AE220BB8C1B412
:10508000839D2D5B0562DA1C304C7E8F4E8BB25BAC
:1050900016F4529F8B56A512FBD4827643ED8AF00C
:1050A0008FE7F9311565191850F19BD94A13EEB401
:1050B000284CF0A686C1251F035FC270CB9E4916FF
:1050C000E642889C44EB2014B0650836AD6EA58599
:1050D00085F0CA14E2FD031A0B899979D5B13D090F
:1050E000D8DA973A35EBCF10AC363F5E73BB38CF8A
:1050F0003E6752FA44AFBA150100000000000000FC
:105100000000000000000020345065C05FC9A652B6
:10511000BB13CBAEC440C21806C8DF7100D5A87C53
:10512000F56F0FDA58FC27136E4756357D2420653E
:1051300002C7E768E48CA41DE9E60268D7CD3961AF
:105140007977FCC2405BEF16798CDE43FFA751F9FB
:1051500091F3B278F5BDBE11E857E9D6E8BEE87B19
:10516000B054AC8F848D751BEA23A499E9F9D38BD5
:10517000B7A3714061DA3E15CEE33ECB73F9480820
:105180008C97B427D51B7010A2BFEFB9EB853215F1
:105190004DB44DB49BBB6F1996B6076CF8E7EEADF6
:1051A00036D9B4F59135AE13222218AF4E6A684D48
:1051B00091DAAA3D4F40741E9FBD9EE006A1C098A3
:1051C00057C2A7FDA40E90170E7D497173E3208F7F
:1051D000B220D87605143B12853D7434811343B058
:1051E000AD297A5F27F4351C000000200000000084
:1051F00000000B0602000000FC510000000000004F
:105200007553000024000207000000207D530000B9
:105210001E000B11150F0000E50E0000000000003D
:1052200035100000590F0000CD10000007470000A6
:105230009910000083460000E746000000000000CF
:10524000F7450000000000000000000000300040B2
:1052500000000000000000000000000000009801B5
:10526000000001016852000000300040745200004C
:10527000010000007C5200000200000009000C0048
:1052800006000B0013470000000000009D12000004
:105290000000000000000000ED110000F5FFFFFF1E
:1052A000744D0000744D0000844D00008C4D0000D2
:1052B0009C4D00009C4D000000000000000000001C
:1052C00000000000000000000000004095596959EE
:1052D000555554551555555604051541105455400E
:1052E00045515544404550445055554500400040B7
:1052F0004004449665555655454045545141154026
:10530000559155555555405105010000544554548B
:10531000455505040010041014044000000001402D
:1053200055551541540400004400010000000040A0
:105330004100004450444550540055555455655162
:1053400000400040010000010005010011545151CE
:10535000545555050000000000000000000000004A
:1053600063627072696E74665F7061636B616765BA
:10537000006D707500464C4153485F3000535241F8
:105380004D5F3000736F6300636C6F636B4034304C
:1053900030303030303000636C6F636B5F636F6E42
:1053A00074726F6C0069326300693263403430306C
:1053B0003033303030006932635F6E7266785F740C
:1053C000776900666174616C5F6572726F7200006C
:1053D00000000001000000010100000101010100C6
:1053E0000000004E5246585F434C4F434B004E5214
:1053F00046585F545749006D61696E006F73002A0B
:105400002A2A20426F6F74696E67206E52462043CD
:105410006F6E6E6563742053444B2076322E352EAA
:1054200030202A2A2A0A00696E66006E616E002802
:085430006E756C6C2900000090
:1054380031430000040000200400002001000000A7
:1054480001000000140000201400002000000000EB
:105458000100000000000000000000002C000020F7
:045468002C000020F4
:04546C00000000003C
:0454700015E015E04E
:0400000300000BE10D
:00000001FF
